:100000000C94022A0C9400000C9400000C94000044
:100010000C9400000C9400000C9400000C94000060
:100020000C9400000C9400000C9400000C94000050
:100030000C9400000C9400000C9400000C94000040
:100040000C9400000C9400000C9400000C94000030
:100050000C94000000000000000000000000000000
:100060000000000000000000000000000000000090
:100070000000000000364400000000000000000006
:100080000000000000000000000000000000000070
:1000900000000022460000000000000000000000F8
:1000A0000000000000000000000000000000000050
:1000B0000019B30000000000000000000000000074
:1000C00000000000000000000000000000000244EA
:1000D000244B800000000000000000000000000031
:1000E000000000000000000000000000032236793C
:1000F000C000000000000000000000000000000040
:100100000000000000000000000001223A38C0009A
:1001100000000000000000000000000000000000DF
:100120000000000000000000005DCE1C3000000058
:1001300000000000000000000000000000000000BF
:100140000000000000001C44C60C18000000000065
:10015000000000000000000000000000000000009F
:1001600000000000333BC0041C0000000000000041
:10017000000000000000000000000000000000007F
:1001800000000C8C0C0004000000000000000000C7
:10019000000000000000000000000000000000005F
:1001A0000CCC0C0004000000000000000000000067
:1001B0000000000000000000000000000000023C01
:1001C000000000000000000000000000000000002F
:1001D000000000000000000000000000018000049A
:1001E000000000000000000000000000000F800080
:1001F0000000000000000000000000600038000067
:100200000000000000000000000000201C3FF00083
:1002100000000000000000000018200000000000A6
:10022000000000000000000000000000038000004B
:10023000000000000000000C380004000000000076
:100240000000000000000000000001C000000000ED
:10025000000000000004180004000000000000007E
:10026000000000000020000000600000000000000E
:100270000000000300000400000000000000000077
:10028000000000180000000C00000000000000004A
:100290000001C00004000000000000000000000099
:1002A00000300000000C0000000000000000000012
:1002B000300004000000000000000000000001C049
:1002C00000000003000000000000000000003000FB
:1002D0000200000000000000000000000300000019
:1002E0000003000000000000000000000C000300FC
:1002F00000000000000000000000040000000001F9
:100300008000000000000000000000C0004000006D
:1003100000000000000000000C0000000000C00011
:100320000000000000000000004000380000000055
:10033000000000000000300000000000400000004D
:100340000000000000000020000400000000000089
:1003500000000000C000000000004000000000009D
:10036000000000000030000300000000000000005A
:10037000000300000000000040000000000000003A
:100380000000001C000380000000000000000006C8
:10039000000000000000400000000000000000001D
:1003A000000400003000000000000000000C00000D
:1003B00000000000400000000000000000000002FB
:1003C00000000C0000000000000000080000000019
:1003D0000000C0000000000000000000000300005A
:1003E0000400000000000000000800000000000001
:1003F000C00000000000000000000000C0000380FA
:10040000000000000000000C00000000000180005F
:1004100000000000000000000000C00001C000005B
:1004200000000000003C000000000001000000008F
:100430000000000000000000300000060000000086
:100440000000000F0000000000020000000000009B
:100450000000000000001800000200000000000082
:100460000003800000000004000000000000000005
:10047000000000000C0000018000000000000001EE
:1004800000000000001C0000000000000000000050
:10049000000004000000800000000000001B0000BD
:1004A0000000003800000000000000000000000014
:1004B00003000000400000000000003000000000C9
:1004C0000020C0000000000000000000000001C08B
:1004D0000000000000000000006000000000003E7E
:1004E00038000000000000000000000000C0000014
:1004F00020000000000003C00000000000001C00FD
:100500000000000000000000000000600000380053
:1005100000000000040000000000000006000000D1
:100520000000000000000000003000000FC00000CC
:100530000000040000000000000003C000000000F4
:1005400000000000000000080000304380000000B0
:100550000400000000000000004000000000000057
:10056000000000000004000020C01C000000030088
:10057000000000000000002000000000000000005B
:1005800000000002000020C003C0000003000000C3
:10059000000000000030000000000000000000002B
:1005A0000003000020C001E0000000C000000000C7
:1005B000000000300000000000000000000000000B
:1005C00080002060000700000038000000000000EC
:1005D00000200000000000000000000000004000BB
:1005E00020700003C000000C00000000000000208C
:1005F000000000000000000000000000180020388B
:1006000000000003C00300000000000000400000E4
:100610000000000000000000000018002030000072
:10062000001B7F8100000000000000C000000000EF
:100630000000000000000000040020000000000C8A
:1006400000320000000000000380000000000000F5
:10065000000000000000040020000000001C000C4E
:100660000000000000000200000000000000000088
:1006700000000000018020000000000000000000D9
:100680000000000004000000000000000000000066
:10069000000000C00000007FFC000000000000001F
:1006A0000000300000000000000000000000000E0C
:1006B000000000007FFFFE00000000000000E000DE
:1006C000400000000000000000000000000F0000DB
:1006D000001FFFFEC600000000000001F801C0007E
:1006E00000000000000000000000000F00003FFFBD
:1006F000FFFF0600000000000001CFFC000000002A
:100700000000000000000000000F0007FFFFFFECEA
:100710000700000000000000600000000000000072
:10072000000000000000000FE0FFFFFDEFFC0700ED
:100730000000000000002000000000000000000099
:10074000000000000007E37FFFD87F201F8000002B
:10075000000000001C00000000000000000000007D
:1007600000000003F33C3FFCFF603F8000000000FE
:1007700000000C000000000000000000000000006D
:1007800000007BC03DFFFF003FC0000000000000F4
:1007900000C0000000000000000000000000000099
:1007A0007BC00E7FFB007FC0000000000000003017
:1007B000000000000000000000000000000071F0D8
:1007C00000EFF401FFC0000000000000001C00006A
:1007D00000000000000000000000000071F8003F71
:1007E000FC03FFC0000000000000003C000000000F
:1007F0000000000000000000000073FC001FFC036C
:10080000FFC000000000000000C400000000000065
:100810000000000000000000F1FF0007D80FFFC03B
:100820004000000000003C03000000000000000049
:10083000000000000000F1FFE007F83FDFE04000AB
:1008400000000001C0018000000000000000000066
:100850000000000070FFE003FC7FFFE040000000AC
:100860000007000180000000000000000000000000
:10087000000070FFFE03FFFFFFE04000000000E00B
:100880000000C000000000000000000000000000A8
:1008900070FFBFFF0FFFFFF04000000003000000EB
:1008A0004000000000000000000000000000787F11
:1008B000BFFFFFC7FFF0200000000C000000200079
:1008C000000000000000000000000000787FBFFF73
:1008D000FDE3FFF0200000000C00000020000000FD
:1008E00000000000000000000000783F7FFFF83C9F
:1008F000FFF82000000018000000200000000000A9
:100900000000000000000000783FFFB87C03CFF833
:10091000400000001800000020000000000000005F
:100920000000000000003C3FFF707C00E7F8400042
:100930000000100000003000000000000000000077
:10094000000000003E3FFDC0FF001DFC0000000055
:100950001000000030000000000000000000000057
:1009600000003E3FFB80FF800EFC000000001000F6
:100970000000300000000000000000000000000047
:100980003E3FF601FFF003FC2000000018000000CD
:1009900030000000000000000000000000001F1FE9
:1009A000EC03FFFF80FC0000000018000000300096
:1009B0000000000000000000000000000F9FF8078A
:1009C000FFFFC03C00000000080000001000000015
:1009D000000000000000000000000FDFF03FFFFFFC
:1009E000FF7DC000000008000000180000000000AB
:1009F000000000000000000007CFE07FFFFFFFF8CD
:100A000000000000080000000800000000000000D6
:100A100000000000000007CFC03FFFFFFFC0020042
:100A200000000800000008000000000000000000B6
:100A30000000000003F7C7FFFFFE03FFFF80000078
:100A40000D80000008000000000000000000000011
:100A5000000003E787FFFFC01FFFFF8000000D803D
:100A6000000008000000000000000000000000007E
:100A700001E38FFFF8000FFFFF8000000D800000F2
:100A8000080000000000000000000000000000FD61
:100A9000FF800001FFC1FE000000050000001800FB
:100AA00000000000000000000000000000FDFFC08A
:100AB0000003FE007E0000000500000010000000A2
:100AC0000000000000000000000003BFFFFFFFFF68
:100AD0007800000000000600000030000000000068
:100AE000000000000000000003BFFFFFCFFFB800C0
:100AF00000000000040000003000000000000000C2
:100B000000000000000003FF807EFFC7940000008B
:100B100000000400000020000000000000000000B1
:100B20000000000003FF003DFBC383000000000045
:100B30000400000020000000000000000000000091
:100B4000000003FC001BD983CF80000000000400DC
:100B50000000000000000000000000000000000095
:100B600001F80010C18341C0000000000400000033
:100B70004000000000000000000000000000000035
:100B80000064C1C3A1C0000000000C0000004000D0
:100B9000000000000000000000000000000000A4B1
:100BA000C0C3E0C00000000008000000C00000005A
:100BB000000000000000000000000000004780C3AB
:100BC000F3600000000018300000C00000000000CA
:100BD0000000000000000000000000C7C0C333F0A8
:100BE00000000000118000018000000000000000F3
:100BF000000000000000000003C4C043327C00007D
:100C000000001C3C0001800000000000000000000B
:100C100000000000000003C7C043B67E00000000D3
:100C200038F000018000000000000000000000001B
:100C30000000000001C3F023B23F80000000460026
:100C40000001800000000000000000000000000023
:100C5000000003C1F823F23FD80000003FF000017C
:100C60008000000000000000000000000000000004
:100C700003C1F823FA1FFC0000003C3C0001800087
:100C8000000000000000000000000000000003C0A1
:100C90007E39FE03E000000010C3800080000000E9
:100CA00000000000000000000000000003F07E389B
:100CB000FE000000000010398000800000000000ED
:100CC0000000000000000000000003F07E183FC09C
:100CD00000000001FC0C000080000000000000008B
:100CE000000000000000000007F03C1FFF80000033
:100CF000003C020400018000000000000000000031
:100D0000000000000000FFC0F1FC001C00001E00FD
:100D100000C300018000000000000000000000008F
:100D2000000000003F00018C0003003FC0000040B5
:100D3000C001800000000000000000000000000072
:100D400000000000007FE0000000000000402001E3
:100D50008000000000000000000000000000000013
:100D60000001C006200000000000002020018000DB
:100D70000000000000000000000000000000000271
:100D80000C07C00000000000003018010000000047
:100D90000000000000000000000000000002060348
:100DA000800000000000003008010000000000008A
:100DB000000000000000000000000001838400002B
:100DC0000000000000300C010000000000000000E6
:100DD00000000000000000000000F0000000000023
:100DE00000000010040300000000000000000000EC
:100DF0000000000000000001F800000000000000FA
:100E000000100403000000000000000000000000CB
:100E10000000000000018200000000000000001837
:100E200002030000000000000000000000000000BD
:100E3000000000000000000000000000001C030291
:100E400000000000000000000000000000000000A2
:100E500000001C000C00003FFC7FD8000182000055
:100E60000000000000000000000000000000000082
:100E70001F0000000FF807E0180200C20000000089
:100E80000000000000000000000000000000003E24
:100E90000002000000000C02004200000000000000
:100EA0000000000000000000000000000300001827
:100EB000000000000202000000000000000000002E
:100EC00000000000000000000000003C01E0000005
:100ED0000000030200040000000000000000000009
:100EE000000000000000000000041FE000000000FF
:100EF000018200040000000000000000000000006B
:100F00000000000000000001C0200000000000C33D
:100F100000040000000000000000000000000000CD
:100F200000000000000040200000000000430040DE
:100F300000000000000000000000000000000000B1
:100F400000000000706000000000004180430000CD
:100F50000000000000000000000000000000000091
:100F60000000000000000000000000000000000081
:100F70000000000000000000000000000000000071
:100F80000000000000000000000000000000000061
:100F90000000000000000000000000000000000051
:100FA0000000000000000000000000000000000041
:100FB0000000000000000000000000000000000031
:100FC0000000000000000000000000000000000021
:100FD0000000000000000000000000000000000011
:100FE0000000000000000000000000000000000001
:100FF00000000000000000000000000000000000F1
:1010000000000000000000000000000000000000E0
:10101000000000000040000000020000020000008C
:1010200000000000000000000000000000000000C0
:101030001F7F0040F07C000203F80207DF00000081
:101040000000000000000000000000000000042379
:1010500080E038380007011C07010600000000008E
:10106000000000000000000000000000042180E0FB
:101070003C300007010C07010C00000000000000DC
:1010800000000000000000000000042180E02C109F
:101090000007010C07011000000000000000000024
:1010A00000000000000000000421013026100009AB
:1010B00081080981200000000000000000000000FD
:1010C0000000000000000432013027100009819068
:1010D0000981C000000000000000000000000000C6
:1010E00000000000042C0230239000118160118167
:1010F0006000000000000000000000000000000090
:101100000000042E03F82190001FC1701FC1700061
:1011100000000000000000000000000000000000CF
:101120000427041820D00020C13820C13800000056
:101130000000000000000000000000000000042388
:10114000041C20F1FE20E11820E11800000000003E
:101150000000000000000000000000000423840CD8
:1011600020700020611C20610C00000000000000C5
:10117000000000000000000000000421CC0E7030D0
:101180000060710E60710F000000000000000000A0
:1011900000000000000000001FF8FF0FF81000F82A
:1011A0007FC7F87FC780000000000000000000003B
:1011B000000000000000000000000000000000002F
:1011C000000000000000000000000000000000001F
:1011D000000000000000000000000000000000000F
:1011E00000000000000000000000000000000000FF
:1014000000000000000000000100000000000000DB
:101410000600000803F80000008000000000000043
:1014200000000000000007000000000000001C0099
:1014300080380E0E00000380000000000000000055
:10144000000000000100000000000000040080080F
:1014500018030000008000000000000000000000F1
:1014600000000100000000000000040080083001BE
:1014700000000080000000000000000000000000EC
:10148000010000000000000004000008600080006F
:101490000080000000000000000000000000011CAF
:1014A0000E18E0F8780004F980F840E8B8F1E08E12
:1014B0000781E007C3C338E0000000000164312B5E
:1014C00021198C000462831841189C6620B218C64A
:1014D0003008CC654B20000000000184218C120AEA
:1014E00006000480840882108C4420C220681810F2
:1014F00050318C200000000001847F8C1402020017
:101500000500880884108C4420C22028082010116F
:101510008C200000000001044008140202000700B3
:10152000880884308641E082202808201011082095
:101530000000000001044008140202000580880831
:10154000882106862082202808201011082000000B
:101550000000010440082402020005C088188863C6
:101560000388608220280820101108200000000055
:1015700001046088260B040004E08C2888A6030878
:101580006082304C10305821082000000000010417
:10159000310C4311880004708448473C4308A882FA
:1015A000188620188C4108200000000007CF1E0F6D
:1015B00081E0F0001F3BE38E4000810733E78F039B
:1015C000C0CF0787DE7800000000000000080000A0
:1015D000000000000000200102000000000000C028
:1015E00000000000000000000000000800000000F3
:1015F00000000000100302000000000000000000D6
:1016000000000000000000000008000000000000D2
:1016100000000C0C2400000000000000000000008E
:10162000000000000000003E000000FFE00000009D
:1016300003F018000000000000000000000000009F
:10164000000000000000000000000000000000009A
:10165000000000000000000000000000000000008A
:10166000000000000000000000000000000000007A
:10167000000000000000000000000000000000006A
:10168000000000000000000000000000000000005A
:10169000000000000000000000000000000000004A
:1016A000000000000000000000000000000000003A
:1016B000000000000000000000000000000000002A
:1016C000000000000000000000000000000000001A
:1016D00000000000000000003844444444444444F6
:1016E00038000000001070101010101010100000D2
:1016F000000038440404081020407C00000000383A
:101700004404041804044438000000000818182891
:1017100028487C0808000000007C4040784404040D
:1017200044380000000038444040784444443800C5
:101730000000007C04080810102020200000000099
:101740003844444438444444380000000038444499
:10175000443C04044438000000001010282844448D
:101760007C828200000000784444447844444478F9
:10177000000000003C424040404040423C0000002D
:1017800000784442424242424478000000007C40DB
:101790004040784040407C000000007C4040407861
:1017A00040404040000000003C4240404E42424623
:1017B0003A00000000424242427E42424242000061
:1017C00000004040404040404040400000000010C9
:1017D00010101010109090600000000044485060FD
:1017E00060504844420000000040404040404040BB
:1017F000407C0000000000004100410063006300E5
:10180000550055004900490041000000000000005B
:1018100042626252524A464642000000003C424246
:1018200042424242423C000000007C4242427C4034
:10183000404040000000003C42424242424A463C96
:10184000020000007C4242427C42424242000000D0
:1018500000384440403804044438000000007C1044
:1018600010101010101010000000004242424242BE
:101870004242423C00000000828244444428281036
:1018800010000000000000802080204440444044BC
:10189000402A802A80110011000000000000008210
:1018A000824428102844828200000000828244285A
:1018B000101010101000000000FE0204081020405C
:1018C00080FE0000000000000038043C44443C005E
:1018D0000000004040407844444444780000000048
:1018E0000000003844404044380000000004040474
:1018F0003C444444443C0000000000000038447C68
:1019000040443800000000204040604040404040DB
:10191000000000000000003C444444443C047800C3
:1019200000404040586444444444000000004000EB
:101930000040404040404000000000400000404067
:1019400040404040404000004040404850605048C7
:101950004400000000404040404040404040000003
:101960000000000000764949494949000000000094
:101970000000586444444444000000000000003863
:1019800044444444380000000000000078444444CB
:101990004478404000000000003C444444443C047F
:1019A0000400000000006040404040400000000093
:1019B0000000003048201048300000000000404087
:1019C00060404040402000000000000000444444CB
:1019D000444C34000000000000004444282810104B
:1019E0000000000000000049495555222200000077
:1019F0000000000048483030484800000000000067
:101A00000048484848302020C00000000000780806
:101A10001020407800000000384404040810100032
:101A200010000000000000000000000000000000A6
:101A300000002040404040404040404020000040E6
:101A400020202020202020202040000000000040F6
:101A50000000000040000000000000000000000046
:101A60000040000000000D001A0027003400410073
:101A70004E005B006800750082008F009C00A9008A
:101A8000B600C300D000DD00EA00F7000401110138
:101A90001E013801450152015F016C017901860187
:101AA0009301A001AD01C701D401E101EE01FB01E9
:101AB0000802150222022F023C024902560263026A
:101AC00070027D028A029702A402B102BE02CB021A
:101AD000D802E502F202FF020C03190326033303C6
:101AE00040034D035A0367037403810300000000A1
:101AF00000000000000000000000000000000000E6
:101B00000000000000000000000000003F00000096
:101B100000000000404100000000430000010203FB
:101B200004050607080942000000003E000A0B0CED
:101B30000D0E0F101112131415161718191A1B1C5D
:101B40001D1E1F2021222300000000000024252646
:101B50002728292A2B2C2D2E2F303132333435369D
:101B60003738393A3B3C3D000000000000000000DF
:101B70000000000000000000000000000000000065
:101B80000000000000000000000000000000000055
:101B90000000000000000000000000000000000045
:101BA0000000000000000000000000000000000035
:101BB0000000000000000000000000000000000025
:101BC0000000000000000000000000000000000015
:101BD0000000000000000000000000000000000005
:101BE00000000000000000000000000006060606DD
:101BF000060606060606070707080706080803057F
:101C00000706090808070808070708070B0707075A
:101C10000606060606030606020206020806060671
:101C2000060305030606080505050603030303036B
:101C300000000D00D616EC1AEC1B641A0000000020
:101C4000000000000000000000000F001180208054
:101C500040C0404040404040404060806080310093
:101C60001E00000000000000000000000000000056
:101C70000000000000000000000000000000000064
:101C80000000000000000000000000000000040050
:101C90003C000400040004000400040004000400EC
:101CA000040004001F00000000000000000000000D
:101CB0000000000000000000000000000000000024
:101CC0000000000000000000000000000000000014
:101CD00000000F00308020802080010002000400FE
:101CE0000800100020403F807F80000000000000BE
:101CF00000000000000000000000000000000000E4
:101D000000000000000000000000000000000000D3
:101D10000000000000001E0031002100020004004D
:101D20001F00018000804080410062007C000000B4
:101D300000000000000000000000000000000000A3
:101D40000000000000000000000000000000000093
:101D50000000000000000000000001000300070078
:101D600005000900110021007FC0010001000100F1
:101D70000F800000000000000000000000000000D4
:101D80000000000000000000000000000000000053
:101D900000000000000000000000000000803F8004
:101DA0003F80200020002F0030C000400040204035
:101DB000208031003E000000000000000000000014
:101DC0000000000000000000000000000000000013
:101DD0000000000000000000000000000000000003
:101DE00000000F8011802080200040004F0050C074
:101DF00060406040204030801F0000000000000074
:101E000000000000000000000000000000000000D2
:101E100000000000000000000000000000000000C2
:101E20000000000000003FC03F8020800100020051
:101E300002000600040004000C000C000C0000006E
:101E40000000000000000000000000000000000092
:101E50000000000000000000000000000000000082
:101E6000000000000000000000000F001180208032
:101E700031001A000E001F8021C0404040406080A9
:101E80003F00000000000000000000000000000013
:101E90000000000000000000000000000000000042
:101EA00000000000000000000000000000001F0013
:101EB0002180408040C061C03E4000400040208002
:101EC000208031003E000000000000000000000003
:101ED0000000000000000000000000000000000002
:101EE00000000000000000000000000000000000F2
:101EF0000000060006000E000B000B00130011800E
:101F00003F80218020C060C0F0E0000000000000A1
:101F100000000000000000000000000000000000C1
:101F200000000000000000000000000000000000B1
:101F3000000000000000FF00418040804080410020
:101F40007E0043804080408040804100FE000000D1
:101F50000000000000000000000000000000000081
:101F60000000000000000000000000000000000071
:101F70000000000000000000000007E018602020C2
:101F800040004000400040004000600038203FC05A
:101F90000F00000000000000000000000000000032
:101FA0000000000000000000000000000000000031
:101FB0000000000000000000000000000000FFC062
:101FC00040E0403040304010401040104010402071
:101FD00040404080FF0000000000000000000000C2
:101FE00000000000000000000000000000000000F1
:101FF00000000000000000000000000000000000E1
:102000000100FF0043004100400060007C004000F0
:102010004000400041004100FF00000000000000BF
:1020200000000000000000000000000000000000B0
:10203000000000000000000000000000000000FFA1
:10204000434141607C4040606060F000000000005F
:102050000000000000000000000000000000000080
:10206000000000000000000007E018602020400091
:102070004000400041F040606020202038E01F20F8
:102080000000000000000000000000000000000050
:102090000000000000000000000000000000000040
:1020A000000000000000000000000000F0F84020E8
:1020B0004020402040207FE0402040204020402021
:1020C0004020F0F8000000000000000000000000C8
:1020D0000000000000000000000000000000000000
:1020E000000000000000000000F820202020202038
:1020F00020202020F8000000000000000000000068
:1021000000000000000000000000007C1010101013
:10211000101010101010101020C0800000000000DF
:1021200000000000000000000000000000000000AF
:1021300000000000F3C041804300460048007800E2
:102140005C004C00460043004380F1E000000000CA
:10215000000000000000000000000000000000007F
:10216000000000000000000000000000000000006F
:102170000000000000000000F80020002000200007
:102180002000200020002000200020802180FF80EF
:10219000000000000000000000000000000000003F
:1021A000000000000000000000000000000000002F
:1021B000000000000000000000000000000000001F
:1021C000000000780F00180C002C1C002C140026B6
:1021D000260026260026460023460063C6006186A8
:1021E00000618700F10F8000000000000000000087
:1021F00000000000000000000000000000000000DF
:1022000000000000000000000000000000000000CE
:1022100000000000000000000000000000000000BE
:102220000000F0F8307038203C202E20262023209B
:1022300023A021E020E07060F860000000000000B2
:10224000000000000000000000000000000000008E
:10225000000000000000000000000000000000007E
:1022600000000000000007C018E0203040184008BF
:102270004008400840086010301018200FC00000CF
:10228000000000000000000000000000000000004E
:10229000000000000000000000000000000000003E
:1022A00000000000000000000000FF0041804080AE
:1022B000408061007E00400040004000400040003F
:1022C000F00000000000000000000000000000001E
:1022D00000000000000000000000000000000000FE
:1022E000000000000000000000000000000007C027
:1022F00018E020304018401840084008400860109E
:10230000301018200FC0138000E400780030000067
:1023100000000000000000000000000000000000BD
:1023200000000000000000000000000000000000AD
:102330000000FF0041804080408041007E005C0042
:102340004C00460047004380F1C000000000000040
:10235000000000000000000000000000000000007D
:10236000000000000000000000000000000000006D
:102370000000000000001F0023004100400020007A
:102380001800060003004100410062007C000000CC
:10239000000000000000000000000000000000003D
:1023A000000000000000000000000000000000002D
:1023B00000000000000000000000FFC0C8C088400E
:1023C00008000800080008000800080008000800CD
:1023D0003E000000000000000000000000000000BF
:1023E00000000000000000000000000000000000ED
:1023F0000000000000000000000000000000F8F8ED
:10240000207020202020202020202020202020207C
:10241000202010400F80000000000000000000009D
:1024200000000000000000000000000000000000AC
:10243000000000000000000000000000000000009C
:102440000000E1E060C030403080388019001900A1
:102450001F000E000E000400040000000000000039
:10246000000000000000000000000000000000006C
:10247000000000000000000000000000000000005C
:1024800000000000000000000000000000E1C3C0E8
:1024900060C18030C10030C10038E200196200190B
:1024A00066001D34000E3C000E38000E18000410AB
:1024B000000000000000000000000000000000001C
:1024C000000000000000000000000000000000000C
:1024D00000000000000000000000000000000000FC
:1024E00000000000000000000000000079E030C0A3
:1024F00019801D000E000E0006001B001300218035
:1025000061C0F1E0000000000000000000000000D9
:1025100000000000000000000000000000000000BB
:1025200000000000000000000000000000000000AB
:10253000E1E070C0308039001A001A000C00080079
:102540000800080008003E00000000000000000035
:10255000000000000000000000000000000000007B
:10256000000000000000000000000000000000006B
:10257000000000007FC041C04180030007000E0042
:102580000C0018003800704060C0FFC00000000060
:10259000000000000000000000000000000000003B
:1025A000000000000000000000000000000000002B
:1025B00000000000000000000000000000001E00FD
:1025C0006200420046003E00C60086008A8073001A
:1025D00000000000000000000000000000000000FB
:1025E00000000000000000000000000000000000EB
:1025F000000000000000000000002000600020003B
:10260000200023802CC030403040204020402080DB
:1026100020803F00000000000000000000000000DB
:1026200000000000000000000000000000000000AA
:10263000000000000000000000000000000000009A
:102640000000000000000F00330041004000400087
:102650004000600023001C0000000000000000009B
:10266000000000000000000000000000000000006A
:10267000000000000000000000000000000000005A
:10268000000001000300010001001F006300410081
:1026900081008100830083004500798000000000F4
:1026A000000000000000000000000000000000002A
:1026B000000000000000000000000000000000001A
:1026C000000000003C4682FE8080C2423C000000C8
:1026D00000000000000000000000000000000000FA
:1026E00000000C34242060F8404040404040F0009E
:1026F00000000000000000000000000000000000DA
:1027000000000000000000000000000000000000C9
:1027100000001E0023C04100410062001C000800B0
:102720000C001B8060408040C0807F0000000000E3
:102730000000000000000000000000000000000099
:102740000000000000000000000000000000300059
:1027500060002000200023802C803080308020808A
:10276000208020802080F8E00000000000000000B1
:102770000000000000000000000000000000000059
:102780000000000000000000000000002020000009
:10279000C040404040404040F800000000000000C1
:1027A0000000000000000000000000000000080819
:1027B0000000182808080808080808089090E00099
:1027C0000000000000000000000000000000000009
:1027D000000000000000300060002000200023C046
:1027E0002100260028003C002E0027002380F9C08D
:1027F00000000000000000000000000000000000D9
:1028000000000000000000000000000000000000C8
:1028100000000000206020202020202020202020F8
:10282000F8000000000000000000000000000000B0
:102830000000000000000000000000000000000098
:1028400000000000671C29643184218421042104D4
:1028500021042104F9CE0000000000000000000067
:102860000000000000000000000000000000000068
:102870000000000000000000000000000000000058
:10288000000000000000000063802C803080308059
:102890002080208020802080F8E0000000000000E0
:1028A0000000000000000000000000000000000028
:1028B0000000000000000000000000000000000018
:1028C0000000000000000000000000001E00630087
:1028D0008180808080808080C10061003E00000097
:1028E00000000000000000000000000000000000E8
:1028F00000000000000000000000000000000000D8
:1029000000000000000000000000000000000000C7
:102910006380ACC0304030402040204020803100F7
:102920003E00200020002000F80000000000000011
:102930000000000000000000000000000000000097
:102940000000000000000000000000000000000087
:10295000000000000F00730041008100810083002F
:102960008300C500790001000100010007C00000DC
:102970000000000000000000000000000000000057
:102980000000000000000000000000000000672FB1
:10299000383020202020F800000000000000000057
:1029A0000000000000000000000000000000000027
:1029B0003C4C44703C0E42627C0000000000000071
:1029C0000000000000000000000000000000000007
:1029D000202020F8202020202028300000000000A7
:1029E00000000000000000000000000000000000E7
:1029F00000000000000000000000000000006180F6
:102A000020802080208020802180218022803CC066
:102A100000000000000000000000000000000000B6
:102A200000000000000000000000000000000000A6
:102A30000000000000000000000000000000000096
:102A40000000E78063003200320034001C001C00EC
:102A50001800080000000000000000000000000056
:102A60000000000000000000000000000000000066
:102A70000000000000000000000000000000000056
:102A8000000000000000E73C63183310331035B03D
:102A90001DA01DE01CC008C00000000000000000D8
:102AA0000000000000000000000000000000000026
:102AB0000000000000000000000000000000000016
:102AC00000000000000000000000E78073003200FA
:102AD0001C001C001C0026006700F38000000000A2
:102AE00000000000000000000000000000000000E6
:102AF00000000000000000000000000000000000D6
:102B00000000000000000000000000000000E7805E
:102B10007100310032001A001C001C000C0008007B
:102B2000080010009000600000000000000000009D
:102B30000000000000000000000000000000000095
:102B40000000000000000000000000000000000085
:102B500000003F00238007000E000C001800390021
:102B600071007F0000000000000000000000000075
:102B70000000000000000000000000000000000055
:102B80000000000000000000000000000000000045
:102B90001E00610041004100020004000800100016
:102BA00010000000180018000000000000000000E5
:102BB0000000000000000000000000000000000015
:102BC0000000000000000000000000000000000005
:102BD00000000000000000000000000000000000F5
:102BE00000000000000000000000000000000000E5
:102BF00004081010202020202010100804000000DD
:102C000000000000000000000000000000000000C4
:102C100000002010080C040404040C0C0810200010
:102C200000000000000000000000000000000000A4
:102C30000000000000000000001010000000101054
:102C40000000000000000000000000000000000084
:102C50000000000000000000000000000000000074
:102C60001010000000000000000000000000000044
:102C7000000044008800CC00100154019801DC01E0
:102C800020026402A802EC0230037403B803FC03C0
:102C90001E046204A604C804EA042E057205D805C1
:102CA0001C066006A406E8062C077007B407F807A0
:102CB0003C08A208E6082A096E09B209F6093A0A90
:102CC0007E0AA00AC20A060B4A0B6C0B8E0BD20BB3
:102CD000F40B380C7C0CC00C040D480D6A0D8C0DE7
:102CE000AE0DF20D360E7A0EBE0E020F460F8A0F93
:102CF000AC0FCE0FF00F121000000000000000001B
:102D000000000000000000000000000000000000C3
:102D100000000000000000003F0000000000000074
:102D200040410000000043000001020304050607C3
:102D3000080942000000003E000A0B0C0D0E0F10A7
:102D40001112131415161718191A1B1C1D1E1F20FB
:102D50002122230000000000002425262728292AFC
:102D60002B2C2D2E2F303132333435363738393A3B
:102D70003B3C3D000000000000000000000000009F
:102D80000000000000000000000000000000000043
:102D90000000000000000000000000000000000033
:102DA0000000000000000000000000000000000023
:102DB0000000000000000000000000000000000013
:102DC0000000000000000000000000000000000003
:102DD00000000000000000000000000000000000F3
:102DE00000000000000000000000000000000000E3
:102DF00000000000000000000B0B0B0B0B0B0B0B7B
:102E00000B0B0B0A0C0D09080D0D06060B09110D15
:102E10000E090E0A090A0D0C120B0B0B090A090AFE
:102E200008060A0B05050A050F0B090A0A0807061A
:102E30000B090E0A09090905060604040000220010
:102E40003C1CF82CF82D702C000000000000000045
:102E500000001F803FC07FE07FF0F9F0F8F0F8F04D
:102E6000F8F0F8F0F8F07DE03FE01FE00FC0000060
:102E70000000000000000000000000000000000052
:102E800007000F001F007F00FF001F000F000F0052
:102E90000F000F001F001F001F001E000000000099
:102EA0000000000000000000000000000000000022
:102EB0001FE07FF0F9F0F9F0F1F001E007C00F003A
:102EC0003E007FC07FF07FF001F0000000000000B6
:102ED0000000000000000000000000007F807FC0B4
:102EE000FFE0F9E001E003C00FC00FE063F07BF00A
:102EF0007FF07FE01FC00000000000000000000025
:102F00000000000000000000000001E003E007E016
:102F10001FF03FF07FF07DF0F9F8FFF87FF83FF009
:102F200003F003E0000000000000000000000000CB
:102F3000000000000000000003C07FE07FC0F80038
:102F4000FF80FFE0FFF0F9F001F001F07BF07FF08F
:102F50007FE00FC000000000000000000000000043
:102F60000000000000003F807FC07FE0FDE0F8002F
:102F7000FBC0FFE0F9E0F9F0FBF07FE03FE01F80ED
:102F80000000000000000000000000000000000041
:102F90000000000003F8FFF8FFF87BF003E007C033
:102FA00007C00FC00F801F801F801F800F000F0001
:102FB0000000000000000000000000000000000011
:102FC0000FC03FE07FF07FF07DF079F079E07FC0C7
:102FD00079F078F078F87DF87FF07FC01F0000006E
:102FE00000000000000000000000000000000000E1
:102FF0000FC07FE0FFF0FCF0FCF078F07DF07FF098
:103000001FF039E07DE07FC03F800000000000003D
:1030100000000000000000000000000007800FC05A
:103020001FE01FE01FE03FE03FE03FF07FF07FF058
:10303000FFF8FFF8FC78F83870000000000000008E
:103040000000000000000000000000007FC0FFF052
:10305000F9F0F9F8FDF8FFF0FFE0F9F8F1F8F1F810
:10306000FFF8FFF07FE01F8000000000000000007C
:1030700000000000000000000E001FF03FFC7FFC7D
:103080007E7E7E3E7C18FC00FC00FC3EFC7E7FFECB
:103090003FFE0FFC01F800000000000000000000EF
:1030A00000000000000000007FE0FFF0FFF8FCF8E7
:1030B000FC7C7C7C7C7EFC7EFC7CFCFCFFFC7FF84A
:1030C0007FF03E0000000000000000000000000053
:1030D0000000000001F07FF8FFF8FFF8FDF0FC00B1
:1030E000FE00FFE0FFE07FC07C007FF07FF0FFF09C
:1030F00000000000000000000000000000000000D0
:1031000000007800FFE0FFF0FFE0F800F800FFC0EB
:10311000FFC0FFC0FF80F800F800F800F800700062
:10312000000000000000000000000000000000009F
:1031300000000FE01FF83FF87FFC7E787E007C7C6B
:103140007CFC7C3E7C3E3FFE1FFE0FFE000E00001E
:103150000000000000000000000000000000001C53
:103160007C3C7C7CFC7CFC7CFFFCFFFCFFFC7FFE51
:103170007E7E7C7E7C7E7C7E7C7E387E00000000B5
:10318000000000000000000000787C7CFCFCFC7C5F
:103190007C7C7C7C7C7C380000000000000000000F
:1031A000000000000001E001F001F001F001F00179
:1031B000F001F079F0F9F0F9F07FF07FE07FC03FA7
:1031C00000000000000000000000000000000000FF
:1031D0000000F078F8F9F8FBF8FFF0FFE0FFC0FF1F
:1031E000E0FFF07FF07BF879F879F878F878000064
:1031F00000000000000000000000000000000000CF
:10320000007C00FC007C007C007C007C007C007C5E
:10321000007C007FE07FF07FF0FFE0000000000016
:10322000000000000000000000000000000000009E
:10323000007C0000FE3F80FF7F80FF7F80FF7F00DB
:103240007F7F007F7F007F7F007FFF007FFF007F09
:10325000FF007BFF007BFF007BEF0001EE00000022
:10326000000000000000000000000000000000005E
:103270000000003C787E7C7E7E7E7F7E7F3CFFBCB3
:10328000FFFCFBFCFBFEF9FEFDFEFCFEFCFE787C79
:10329000000000000000000000000000000000002E
:1032A0000000000007F0001FF8003FFC003FFE0098
:1032B0007C7E00F83E00F83E00F83E00783E007844
:1032C0003E00787C003CFE001FFE000FFC0007F073
:1032D00000000000000000000000000000000000EE
:1032E00000000000003FC07FE0FFF0FFF8FCF8FCAA
:1032F00078FC78FCF8FFF07FF078007800780078B0
:103300000038000000000000000000000000000085
:103310000000000FF01FF83FF87FFCFC7CFC7CFCF9
:103320003EF83EF9FEF9FC7DFC7FF83FF81FFC01FA
:10333000FC000E0000000000000000000000000083
:10334000000000FFE0FFF8FFF87FFC7CFC78F87FCE
:10335000E07FF87FF8FDF8FCFCFCFC78FC387C0092
:103360000000000000000000000000000000000756
:10337000E07FF0FFF8FCF8FC787C003F000FE001F4
:10338000F078F8FDF8FFF8FFF81FF001C00000002A
:10339000000000000000000000000000007E00FFB0
:1033A000F8FFF8FFF81FC00F800F800F800F800F0D
:1033B000C01FC01FC00F800F80070000000000006A
:1033C0000000000000000000000000000018707EF7
:1033D0007C7E7C7E7C7E7C7C7C7C7C7C7C7C7C7C27
:1033E000FCFCFC7FFC3FF80FF00000000000000038
:1033F0000000000000000000007078F878FCF8FC85
:10340000F8FEF07FF07FF07DE03FE03FE01FE01F3F
:10341000E01FC00FC003800000000000000000009B
:1034200000000000000000000000007003C0F1E791
:10343000E0F9E7E0FBF7C0FBF7C0FBFFC07BFF80D4
:103440007FBF807FBF807FBF803FBF803FBF003F87
:10345000BF003F3F001C0F00000000000000000004
:1034600000000000000000000000000000F03CF838
:103470007DF03FF03FE01FC00FC00FC00FC01FE046
:103480003FE07FF0FFF0FCF07860000000000000FB
:10349000000000000000000000007070FCF8FDF863
:1034A0007DF87FF83FF01FE00FC00FC007C007C0D6
:1034B00007C0078007800000000000000000000037
:1034C00000000000000000000000F800FFF8FFF816
:1034D0003FF803F003E007E00F801F003F007FFC90
:1034E0007FFC7FFC03FC00000000000000000000E7
:1034F00000000000000000000000000000001F802D
:103500007FC079E003E07FE07FF0FFF0F9F0FFF0AB
:10351000FFF0780000000000000000000000000044
:10352000000000007800FC00FC00FC00FFE0FFF061
:10353000FFF8FDF87CF87CF07EF07FF07FE077C04C
:10354000000000000000000000000000000000007B
:103550000000000000000000000000001FC03FE06D
:103560007DE07CE0FC00FCE0FFF07FE03FC000007D
:10357000000000000000000000000000000000004B
:10358000000001F001F801F83EF87FF0FFF0FDF0D7
:10359000F8F0F8F0F8F07DF07FF03FF00FF0000069
:1035A000000000000000000000000000000000001B
:1035B00000000000000000001F807FE0F9E0F7F04D
:1035C000FFF0FFE0F000F9E07FC03F0000000000E6
:1035D00000000000000000000000000007803F80A5
:1035E0003F007E00FF00FF007F003E003E003E00E7
:1035F0007E007E007E003C003C00000000000000D9
:1036000000000000000000000000000000000000BA
:10361000000000003FF07FF0FBF0F9F0F9F0F9F066
:10362000FFF07FF03FF061F0FBE07FE03F800000C3
:103630000000000000000000380078007C007C00E2
:10364000FFC0FFE0FFF0FFF0FDF0FCF0FCF0FCF845
:10365000FCF8F8F8F8F0000000000000000000009E
:1036600000007C7C7830307CFC7C7C7C7C7C7C7CAE
:1036700000000000000000000E1E3E1E003E7F7F86
:103680003E3E3E3E3E3E3E3EFEFE7C0000000000D2
:103690000000000000007C00FC00FC00FDC07FE09A
:1036A0007FE07FC0FF80FFC0FFC0FFE07FF07FF0C2
:1036B00039E0000000000000000000000000007879
:1036C000FC7C7C7C7C7C7C7C7C7C7C7C3800000072
:1036D00000000000000000000000000000000000EA
:1036E000000000000000000000039F80FFFFC0FFFB
:1036F000FFC0FFFBC0F9F3C0F9F3E0FDF7E0FDF711
:10370000E0FDF7E0FDE3C079C1C00000000000006B
:1037100000000000000000000000000000000000A9
:1037200000000000000003E07FF0FFF0FCF87CF8F0
:103730007CF87CF87CF87CF87CF838F0000000001D
:103740000000000000000000000000000000000079
:103750000000000000000FC07FF07DF0FCF8FCF8D6
:10376000FCF8FDF87FF81FF00FE0000000000000FB
:103770000000000000000000000000000000000049
:1037800000007FE07FF07FF07EF07CF07CF07CF04A
:103790007DE07FE07FC07C00FC00FC007800000042
:1037A0000000000000000000000000000000000019
:1037B0000F003FF07FF0FFF0F8F0F8F0FCF07FF042
:1037C0007FF03FF01EF800F800F000F0000000006D
:1037D00000000000000000000000000000007F80EA
:1037E000FF80FF80FF807F807C0078007800780079
:1037F00078007800000000000000000000000000D9
:103800000000000000000000000000001E003FC09B
:103810007FE0FDE0FF807FE0C3F0F1F0FFF0FFE02C
:103820003F800000000000000000000000000000D9
:10383000000000003C007E007E00FF80FF803E0014
:103840003E003E003E007E007F007F803F803F00C4
:103850000000000000000000000000000000000068
:10386000000000000000000079E079F0F9F0F9F0C4
:10387000FDF0FDF8FDF8FDF8FFF8FEF878700000A7
:103880000000000000000000000000000000000038
:1038900000000000000079E0FDE07DE07DE07FE0D9
:1038A0003FC03FC03FC03FC01F801F00000000005E
:1038B0000000000000000000000000000000000008
:1038C000000000000000000000000000798000F906
:1038D000E7807FFFC07FFF807FFF807FFF003FFF8B
:1038E000003F7E003F7E001F1E0000000000000021
:1038F00000000000000000000000000000000000C8
:103900000000000000000000003D807FC07FC07FFD
:10391000C03F801F803F807FC07FC0FBC078000019
:103920000000000000000000000000000000000097
:103930000000000000000001E0F3F0FBF07BE07FFE
:10394000E07FE07FC03FC03F801F801F807F807F7F
:10395000001E000000000000000000000000000049
:10396000000000000000003FE03FE00FE01FC03F0C
:10397000007E007E00FFE0FFF071F000000000001C
:1039800000000000000000000000003FC07FE07F5A
:10399000F0F9F8F9F061F007C00F800F0006000F92
:1039A000000F000F800F800F0000000000000000DB
:1039B0000000000000000000000000000000000007
:1039C00000000000000000000000000000000000F7
:1039D00000000000000000000000000000000000E7
:1039E00000000000387878F8F0F0F0F0F0F0F0F037
:1039F000F8F8FC7C380000000000007878787C7CC7
:103A00007C3C3E3E7E7E7C7C7CFCF800000000001E
:103A10000000000000787C7C7800000078F8F878DE
:103A20000000000000000000000000000000000096
:103A3000000078F8F87800000000000000002E0078
:103A40005C008A00B800E6001401420170019E018A
:103A5000CC01FA01280256028402B202E0020E03EF
:103A60003C0353038103AF03DD0322045004950498
:103A7000C304F1041F054D057B05A905D7051C06E8
:103A80004A067806A606D406020730075E078C07AA
:103A9000BA07E80716082D08440872088908CE08F6
:103AA000FC082A0958098609B409E209100A3E0AE5
:103AB0006C0AB10ADF0A0D0B3B0B690B970BAE0BBF
:103AC000C50BDC0B0000000000000000000000003F
:103AD00000000000000000000000000000000000E6
:103AE000000000003F000000000000004041000016
:103AF0000000430000010203040506070809420014
:103B00000000003E000A0B0C0D0E0F1011121314D2
:103B100015161718191A1B1C1D1E1F202122230001
:103B200000000000002425262728292A2B2C2D2ED2
:103B30002F303132333435363738393A3B3C3D005B
:103B40000000000000000000000000000000000075
:103B50000000000000000000000000000000000065
:103B60000000000000000000000000000000000055
:103B70000000000000000000000000000000000045
:103B80000000000000000000000000000000000035
:103B90000000000000000000000000000000000025
:103BA0000000000000000000000000000000000015
:103BB0000000000000000000000000000000000005
:103BC000000000000D0A0E0D0F0E0D0E0E0E0F0E52
:103BD00010100E0D1010080E0E0D1310110E100FF8
:103BE0000F0E0F0E140E0F0F0E0E0D0E0D0A0E0EF1
:103BF00007080D07150E0E0E0E0B0D0B0E0C130CF9
:103C00000D0D0E0C0808070600001700482EC43AD8
:103C1000C43B3C3A0000000000000000000000002F
:103C200000000000000003C00FF01FF01E781C38D9
:103C3000381C381C381C381C381C381C381C381CE4
:103C4000381C381C381C381C381C1C381E781FF0D7
:103C50000FF003C0000000000000000000000000A2
:103C60000000000000000000000000000000000054
:103C700000000000000001E007E03FE03CE030E031
:103C800000E000E000E000E000E000E000E000E034
:103C900000E000E000E000E000E000E000E000E024
:103CA00000E000E000000000000000000000000054
:103CB0000000000000000000000000000000000004
:103CC00000000000000007E01FF83FFC3C3C781EAD
:103CD000700E700E000E000E001C0038007800E020
:103CE00003C007800F001E001C00380038003FFE94
:103CF0003FFE3FFE0000000000000000000000004A
:103D000000000000000000000000000000000000B3
:103D100000000000000007E01FF03FF8783C101C96
:103D2000001C001C003C007803F003C003F0007C82
:103D3000001C000E000E000E000E301E783C3FFCF2
:103D40001FF807E000000000000000000000000075
:103D50000000000000000000000000000000000063
:103D600000000000000000F800F800F801F801B8B9
:103D700003B80338073806380E380C381C381838A2
:103D8000383830387FFF7FFF7FFF00380038003839
:103D900000380038000000000000000000000000B3
:103DA0000000000000000000000000000000000013
:103DB0000000000000003FFC3FFC3FFC38003800E2
:103DC0003800380038003BE03FF83FFC3C3C381EF0
:103DD000000E000E000E000E100E381E3C3C3FF888
:103DE0000FF007E0000000000000000000000000ED
:103DF00000000000000000000000000000000000C3
:103E000000000000000001F807FC0FFC1E0C3C0045
:103E100038003800700073E07FF87FFC7C3C781E2F
:103E2000700E700E700E700E380E381E3C3C1FFC6B
:103E30000FF807E000000000000000000000000094
:103E40000000000000000000000000000000000072
:103E50000000000000003FFC3FFC3FFC001C001C79
:103E600000380038003800700070007000E000E09A
:103E700001C001C001C00380038003800700070068
:103E800007000E000000000000000000000000001D
:103E90000000000000000000000000000000000022
:103EA00000000000000007E00FF01FF83C3C381C49
:103EB000381C381C381C1C381FF80FF01FF83C3C0D
:103EC000381C700E700E700E700E781E3C3C3FFC5D
:103ED0001FF807E0000000000000000000000000E4
:103EE00000000000000000000000000000000000D2
:103EF00000000000000007E01FF01FF83C3C381CE9
:103F0000701C700E700E700E700E781E3C3E3FFEE0
:103F10001FFE07CE000E001C001C003C30783FF056
:103F20003FE01F80000000000000000000000000D3
:103F30000000000000000000000000000000000081
:103F400000000000000003C003C003E007E007E03A
:103F500007E007600E700E700E700E301C381C38B3
:103F60001C381FF83FFC3FFC381C381C700E700ECC
:103F7000700E700E00000000000000000000000045
:103F80000000000000000000000000000000000031
:103F90000000000000007FE07FF07FF8703C701CA4
:103FA000701C701C701C703870387FF07FF87FFCBC
:103FB000703C701E700E700E700E700E703C7FFCA8
:103FC0007FF87FE00000000000000000000000001B
:103FD00000000000000000000000000000000000E1
:103FE00000000000000003E00FF01FF81E3C381C2A
:103FF00038083800700070007000700070007000A9
:104000007000700070003808380E381C1E3C1FF815
:104010000FF003E0000000000000000000000000BE
:104020000000000000000000000000000000000090
:104030000000000000003FC03FF03FF8383C381C53
:10404000381C380E380E380E380E380E380E380E32
:10405000380E380E380E380E381C381C383C3FF8F5
:104060003FF03FC000000000000000000000000022
:104070000000000000000000000000000000000040
:104080000000000000003FFE3FFE3FFE3800380009
:10409000380038003800380038003FF03FF03FF07B
:1040A00038003800380038003800380038003FFE4B
:1040B0003FFE3FFE00000000000000000000000086
:1040C00000000000000000000000000000000000F0
:1040D0000000000000003FFE3FFE3FFE38003800B9
:1040E000380038003800380038003FF03FF03FF02B
:1040F0003800380038003800380038003800380000
:10410000380038000000000000000000000000003F
:10411000000000000000000000000000000000009F
:1041200000000000000003E00FF81FFC1E3C381EDA
:10413000380E780E700070007000700070FE70FE17
:1041400070FE700E700E780E380E381E3C3E1FFE4C
:104150000FEE07CE0000000000000000000000008D
:10416000000000000000000000000000000000004F
:10417000000000000000380E380E380E380E380EE1
:10418000380E380E380E380E380E3FFE3FFE3FFE1A
:10419000380E380E380E380E380E380E380E380EEF
:1041A000380E380E00000000000000000000000083
:1041B00000000000000000000000000000000000FF
:1041C0000000000000001FFC1FFC1FFC01C001C01C
:1041D00001C001C001C001C001C001C001C001C0D7
:1041E00001C001C001C001C001C001C001C01FFC6D
:1041F0001FFC1FFC00000000000000000000000089
:1042000000000000000000000000000000000000AE
:1042100000000000000001FC01FC01FC001C001C6F
:10422000001C001C001C001C001C001C001C001CAE
:10423000001C381C381C381C381C381C3C3C1FF82F
:104240000FF007E000000000000000000000000088
:10425000000000000000000000000000000000005E
:10426000000000000000380F381C383C3838387027
:1042700038E039E039C03B803F003F003F003F80DD
:104280003B8039C039E038E0387038783838381C2D
:10429000381E380F00000000000000000000000081
:1042A000000000000000000000000000000000000E
:1042B00000000000000038003800380038003800E6
:1042C000380038003800380038003800380038002E
:1042D00038003800380038003800380038003FFC1B
:1042E0003FFC3FFC00000000000000000000000058
:1042F00000000000000000000000000000000000BE
:10430000000000000000781E7C3E7C3E7C3E7C3E2F
:10431000766E766E766E766E73CE73CE73CE73CE09
:10432000718E718E700E700E700E700E700E700E9B
:10433000700E700E00000000000000000000000081
:10434000000000000000000000000000000000006D
:104350000000000000003C0E3C0E3E0E3E0E3E0EE5
:104360003F0E3B0E3B0E3B8E398E398E39CE38CE0A
:1043700038CE38EE386E386E387E383E383E383EAD
:10438000381E381E00000000000000000000000081
:10439000000000000000000000000000000000001D
:1043A00000000000000007E00FF01FF83C3C381C44
:1043B000381C700E700E700E700E700E700E700E37
:1043C000700E700E700E700E381C381C3C3C1FF8BE
:1043D0000FF007E0000000000000000000000000F7
:1043E00000000000000000000000000000000000CD
:1043F0000000000000003FE03FF83FFC383C381E62
:10440000380E380E380E380E381E383C3FFC3FF858
:104410003FE03800380038003800380038003800F5
:10442000380038000000000000000000000000001C
:10443000000000000000000000000000000000007C
:1044400000000000000007E00FF01FF83C3C381CA3
:10445000381C700E700E700E700E700E700E700E96
:10446000700E700E700E700E381C381C3C3C1FF81D
:104470000FF007F80038003C001E000E0009000095
:10448000000000000000000000000000000000002C
:104490000000000000003FE03FF83FFC383C381EC1
:1044A000380E380E380E380E381E383C3FF83FF0C4
:1044B0003FC038E038F0387038783838383C381C2D
:1044C000380E380F0000000000000000000000005F
:1044D00000000000000000000000000000000000DC
:1044E00000000000000007E00FF01FF83C3C380817
:1044F000380038003C001E000F0007C001E000F843
:10450000003C001C000E000E100E380E3C3E1FFC3E
:104510000FF807E0000000000000000000000000AD
:10452000000000000000000000000000000000008B
:104530000000000000003FFE3FFE3FFE01C001C042
:1045400001C001C001C001C001C001C001C001C063
:1045500001C001C001C001C001C001C001C001C053
:1045600001C001C0000000000000000000000000C9
:10457000000000000000000000000000000000003B
:10458000000000000000380E380E380E380E380ECD
:10459000380E380E380E380E380E380E380E380EEB
:1045A000380E380E380E380E380E3C1E3C1E1FFCDE
:1045B0000FF807F0000000000000000000000000FD
:1045C00000000000000000000000000000000000EB
:1045D000000000000000700E700E300E381C381CF9
:1045E000381C381C1C181C381C381C380C380E7031
:1045F0000E700E700E70076007E007E007E003E042
:1046000003C003C000000000000000000000000024
:10461000000000000000000000000000000000009A
:104620000000000000006006700670067006700E44
:10463000700E700E700E718E718E73CE73CE33CE7F
:1046400033CC3FEC3E7C3E7C3E7C3E7C3C3C3C3C68
:104650003C3C3C3C0000000000000000000000006A
:10466000000000000000000000000000000000004A
:10467000000000000000781E381C1C3C1C381E780E
:104680000E700E7007E007E003C003C003C003C054
:1046900007E007E00E700E701C381C383C3C381CDC
:1046A000381E700E00000000000000000000000036
:1046B00000000000000000000000000000000000FA
:1046C000000000000000780F380E1C1C1C1C1E3C53
:1046D0000E380E380770077003E003E003E001C0F6
:1046E00001C001C001C001C001C001C001C001C0C2
:1046F00001C001C000000000000000000000000038
:1047000000000000000000000000000000000000A9
:104710000000000000003FFC3FFC3FFC001C003C90
:1047200000380078007000E000E001C001C00380A4
:10473000078007000F000E001E001C0038003FFE1F
:104740003FFE3FFE000000000000000000000000EF
:104750000000000000000000000000000000000059
:104760000000000000000000000000000000000049
:104770000000000000000FC03FF03FF800380FF8C5
:104780001FF83FF8783870387038703878F83FFC88
:104790003FDE0F8C00000000000000000000000061
:1047A0000000000000000000000000000000000009
:1047B00000000000000038003800380038003800E1
:1047C0003800380038003BE03FF83FFC3C3C381EE6
:1047D000380E380E380E380E380E381E3C3C3FFC72
:1047E0003FF83BE000000000000000000000000077
:1047F00000000000000000000000000000000000B9
:1048000000000000000000000000000000000000A8
:1048100000000000000007E00FF81FFC3C1C7808B7
:104820007000700070007000700078083C1E1FFC63
:104830000FF807E00000000000000000000000008A
:104840000000000000000000000000000000000068
:10485000000000000000001C001C001C001C001CCC
:10486000001C001C001C07DC1FFC3FFC3C3C781CAF
:10487000701C701C701C701C701C781C3C3C3FFC35
:104880001FFC07DC0000000000000000000000002A
:104890000000000000000000000000000000000018
:1048A0000000000000000000000000000000000008
:1048B00000000000000007E01FF83FFC3C1C700EE9
:1048C0007FFE7FFE7FFE7000700078043C1C3FFE80
:1048D0001FFC07F0000000000000000000000000C6
:1048E00000000000000000000000000000000000C8
:1048F000000000000000007C01FE01FE03C40380F4
:104900000380038003803FFC3FFC3FFC0380038067
:10491000038003800380038003800380038003807F
:104920000380038000000000000000000000000081
:104930000000000000000000000000000000000077
:104940000000000000000000000000000000000067
:1049500000000000000007DC1FFC3FFC3C3C781C12
:10496000701C701C701C701C701C781C3C3C3FFC44
:104970001FFC07DC001C001C183C1FF83FF007C0A0
:104980000000000000000000000000000000000027
:1049900000000000000038003800380038003800FF
:1049A00038003800380038F03BFC3FFC3E1E3C0E1F
:1049B0003C0E380E380E380E380E380E380E380EC3
:1049C000380E380E0000000000000000000000005B
:1049D00000000000000000000000000000000000D7
:1049E000000000000000000000E000E000E0000027
:1049F0000000000000001FE01FE01FE000E000E0FA
:104A000000E000E000E000E000E000E000E000E0A6
:104A100000E000E0000000000000000000000000D6
:104A20000000000000000000000000000000000086
:104A300000000000000000000038003800380000CE
:104A400000000000000007F807F807F800380038F9
:104A50000038003800380038003800380038003896
:104A6000003870387038703878783FF01FE00FC029
:104A70000000000000000000000000000000000036
:104A8000000000000000380038003800380038000E
:104A9000380038003800381E3838387038E039C0EF
:104AA0003B803F803F803DC039E038F03870383877
:104AB000383C381E0000000000000000000000002C
:104AC00000000000000000000000000000000000E6
:104AD0000000000000001FE01FE01FE000E000E019
:104AE00000E000E000E000E000E000E000E000E0C6
:104AF00000E000E000E000E000E000E000E000E0B6
:104B000000E000E0000000000000000000000000E5
:104B10000000000000000000000000000000000095
:104B20000000000000000000000000000000000085
:104B3000000000000000771C7FBE7FFF79E771C78F
:104B400071C771C771C771C771C771C771C771C7A5
:104B500071C771C7000000000000000000000000E5
:104B60000000000000000000000000000000000045
:104B70000000000000000000000000000000000035
:104B800000000000000038F03BFC3FFC3E1E3C0EE5
:104B90003C0E380E380E380E380E380E380E380EE1
:104BA000380E380E00000000000000000000000079
:104BB00000000000000000000000000000000000F5
:104BC00000000000000000000000000000000000E5
:104BD00000000000000007E01FF83FFC3C3C781E8E
:104BE000700E700E700E700E700E781E3C3C3FFC06
:104BF0001FF807E0000000000000000000000000B7
:104C000000000000000000000000000000000000A4
:104C10000000000000000000000000000000000094
:104C20000000000000003BE03FF83FFC3C3C381E29
:104C3000380E380E380E380E380E381E3C3C3FFC0D
:104C40003FF83BE0380038003800380038003800C2
:104C50000000000000000000000000000000000054
:104C60000000000000000000000000000000000044
:104C700000000000000007DC1FFC3FFC3C3C781CEF
:104C8000701C701C701C701C701C781C3C3C3FFC21
:104C90001FFC07DC001C001C001C001C001C001C6E
:104CA0000000000000000000000000000000000004
:104CB00000000000000000000000000000000000F4
:104CC00000000000000038781CFC1DFE1F8E1F0E27
:104CD0001E001E001C001C001C001C001C001C00F0
:104CE0001C001C000000000000000000000000008C
:104CF00000000000000000000000000000000000B4
:104D000000000000000000000000000000000000A3
:104D100000000000000007E00FF81FFC1C181C003A
:104D20001E000F8003E00078001C101C1C1C3FFCC0
:104D30000FF803E000000000000000000000000089
:104D40000000000000000000000000000000000063
:104D50000000000000000000000000000700070045
:104D60000700070007003FF83FF83FF8070007007B
:104D7000070007000700070007000708071C07FCDB
:104D800003F801F000000000000000000000000037
:104D90000000000000000000000000000000000013
:104DA0000000000000000000000000000000000003
:104DB000000000000000701C701C701C701C701C37
:104DC000701C701C701C701C703C703C787C3FFC2C
:104DD0003FDC0F1C0000000000000000000000008D
:104DE00000000000000000000000000000000000C3
:104DF00000000000000000000000000000000000B3
:104E0000000000000000700E381C381C381C1C38D4
:104E10001C381C380E700E70067007E007E003E0C7
:104E200003C003C0000000000000000000000000FC
:104E30000000000000000000000000000000000072
:104E40000000000000000000000000000000000062
:104E5000000000000000E0076007700673CE73CE0C
:104E600073CE73CE77EE366C366C3E7C3E3C3C3C6B
:104E70003C3C3C3C00000000000000000000000042
:104E80000000000000000000000000000000000022
:104E90000000000000000000000000000000000012
:104EA000000000000000381C1C381E780E7007E05F
:104EB00007E003C003C007E007E00E700E781C385F
:104EC0003C1C781E000000000000000000000000F4
:104ED00000000000000000000000000000000000D2
:104EE00000000000000000000000000000000000C2
:104EF000000000000000780E380E3C1C1C1C1C1C1E
:104F00000E380E380738077003F003F003E001E0B5
:104F100001E001C001C063C073807F803F001E00BC
:104F20000000000000000000000000000000000081
:104F30000000000000000000000000000000000071
:104F40000000000000001FFC1FFC1FFC0038007068
:104F500000E001E003C0078007000E001C003FFCDA
:104F60003FFC3FFC000000000000000000000000CB
:104F70000000000000000000000000000000000031
:104F800000000000000007E00FF01FF83C3C381C58
:104F9000381C001C00380038007000E001E001C03F
:104FA00001C001C001C001C00000000003C003C077
:104FB00003C003C00000000000000000000000006B
:104FC00000000000000000000000000000000000E1
:104FD00000000000000000000000000000000000D1
:104FE00000000000000000000000000000000000C1
:104FF00000000000000000000000000000000000B1
:1050000000000000000000000000000000000000A0
:105010000000000000000000000000000000000090
:10502000000000200030007800F001E003C00380A1
:105030000700070007000E000E000E000E000E0015
:105040000E000E000E000E00070007000700038090
:10505000038001C001E000F0007800300000000093
:105060000000000000000000000000000000000040
:10507000000008000C001E000F00078003C001C0E4
:1050800000E000E000E00070007000700070007050
:10509000007000700070007000E000E000E001C0EF
:1050A00001C0038007800F001E000C0000000000FC
:1050B00000000000000000000000000000000000F0
:1050C00000000000000000000000000000000000E0
:1050D00000000000000003C003C003C003C00000C4
:1050E00000000000000000000000000003C003C03A
:1050F00003C003C00000000000000000000000002A
:10510000000000000000000000000000000000009F
:10511000000000000000000000000000000000008F
:10512000000000000000000000000000000000007F
:1051300000000000000000000000000003C003C0E9
:1051400003C003C0000000000000000000000000D9
:105150000000000000005000A000F000400190019D
:10516000E00130028002D00220037003C00310046B
:105170006004B00400055005A005F0054006900647
:10518000E00630078007D00720087008C008100923
:105190006009B009000A500AA00AF00A400B900BFF
:1051A000E00B300C800CD00C200D700DC00D100EDB
:1051B000600EB00E000F500FA00FF00F40109010B7
:1051C000E01030118011D01120127012C012101393
:1051D0006013B01300145014A014F0140000000069
:1051E00000000000000000000000000000000000BF
:1051F0000000000000000000000000003F00000070
:1052000000000000404100000000430000010203D4
:1052100004050607080942000000003E000A0B0CC6
:105220000D0E0F101112131415161718191A1B1C36
:105230001D1E1F202122230000000000002425261F
:105240002728292A2B2C2D2E2F3031323334353676
:105250003738393A3B3C3D000000000000000000B8
:10526000000000000000000000000000000000003E
:10527000000000000000000000000000000000002E
:10528000000000000000000000000000000000001E
:10529000000000000000000000000000000000000E
:1052A00000000000000000000000000000000000FE
:1052B00000000000000000000000000000000000EE
:1052C00000000000000000000000000000000000DE
:1052D0000000000000000000000000001000280096
:1052E000143CDC51000054511027E80364000A000C
:1052F0000100001000011000010001000000253035
:1053000032642525200047726170686963204C4330
:1053100044202820543639363320292050726F6AB1
:10532000656374002020202020415652204D69637F
:10533000726F636F6E74726F6C6C657200202020E8
:10534000202020202020202041544D454741313647
:105350000020202020202020204A75737420666FB2
:105360007220596F757200202020202020202020DC
:105370002A2A2A2A2A2A2A2A2A2A2A0020202020DF
:1053800020202020202020202A2A2A2A2A0020200B
:1053900020202020202020323030352F7365702FC0
:1053A00031350031323334353637383930414243C4
:1053B0004445464748494A4B4C4D4E4F5051525335
:1053C0005455565758004A55535420474F20464F7E
:1053D0005220554E4445525354414E44004A555371
:1053E0005420474F20464F52202E2E2E004A555310
:1053F0005420464F5220594F5520000004006002AF
:10540000FA520000F894EE27ECBBF1E0FBBFEBBFD3
:10541000E5BFF8E1F1BDE1BD8DE0A2E0BB27ED9372
:105420008A95E9F780E098E0A0E6ED930197E9F727
:10543000ECEFF3E585919591009761F0A591B59119
:1054400005901590BF01F00105900D920197E1F7CD
:10545000FB01F0CFEFE5EDBFE8E0EEBFC0E6D2E044
:105460000C946E2EE881F981F070FA93EA9361D181
:10547000E981F070FA93EA935CD1E4E2F0E0FA9308
:10548000EA9365D1229608951A930A93E0E0F2E038
:10549000FA93EA930E94322A00E010E00030EFE035
:1054A0001E072CF40E9422320F5F1F4FF7CF13C04C
:1054B0001A930A93E0E0F0E0FA93EA930E94322A0A
:1054C00000E010E0003EE1E01E072CF40E942232D2
:1054D0000F5F1F4FF7CF0991199108950E942E3247
:1054E00000E010E00E943A32E03061F00E943A326F
:1054F0000E94423214F420E030E00E9449320F5FF3
:105500001F4FF0CFA8C00E942E3200E010E00E9492
:105510005332E03061F00E9453320E94423214F460
:1055200020E030E00E9449320F5F1F4FF0CF93C060
:105530000E945B3234F4AA81BB81A038E0E0BE0750
:105540000CF09AC00E946332FF93EF93EC81FD81CF
:105550000E949835AF91BF910E946C32E86FFA9328
:10556000EA93F5D089C00E945B3234F4AA81BB81F2
:10557000A038E0E0BE070CF07FC00E946332FF93CA
:10558000EF93EC81FD810E949835AF91BF910E940D
:105590006C32E06FFA93EA93DAD06EC01A930A93F2
:1055A000AD81BE81A03FE0E0BE0734F4AB81BC8199
:1055B000A038E0E0BE070CF01BC0AB81BC810E94AC
:1055C0008132FF93EF93ED81FE810E949835AF9178
:1055D000BF910E948832EA81E03021F00E9490322F
:1055E000E86F03C00E949032E06FFA93EA93AFD065
:1055F00019810881279608950E94BD37AE81BF8129
:105600000E9481320E2F1F2F1A930A930E94322A72
:10561000E0EBF0E0FA93EA939AD020E030E0AC813E
:10562000BD81EEE1F0E00E94D5352E173F0774F4FE
:10563000E22FF32FA885B985EA0FFB1FE491F0E074
:10564000FA93EA9376D02F5F3F4FE9CFE2EBF0E099
:10565000FA93EA937CD00E94C4372A9608951A934D
:105660000A93AA81BB81EEE1F0E00E94D535309625
:10567000AC81BD810E9488321981088126960895E7
:105680008A9A8B9A8C9A889A8F9A929A939A949AD9
:10569000909AEFEFE4BB979A0E949D3297980E94F0
:1056A0009D32979A08950E94A332E2E0F0E0FA93C7
:1056B000EA933FD0E2E4F0E00E94A932E3E4F0E0B4
:1056C0000E94B4320E94A332E0E4F0E00E94A932CA
:1056D000E1E4F0E0FA93EA933AD0E1E8F0E0FA93FB
:1056E000EA9335D0E7EAF0E00E94B4320E94A33298
:1056F000E1E2F0E0FA93EA932AD0ECE9F0E0FA93E1
:10570000EA9325D008951A930A93E0E0E4BB909AB7
:105710009398929800000000E3B3F0E00E2F1F2F43
:10572000929A939AEFEFE4BBE02FF12F0991199130
:1057300008950E94B932E9F790989498E881F98128
:10574000E5BB929800000000929A949A0CC00E94C7
:10575000B932E9F7E881F981E5BB909A939A949878
:105760009298929A949A2296089524970E94BB3711
:10577000AF85B889EB85FC85EA1BFB0B0E2F1F2F2D
:10578000A989BA89ED85FE85EA1BFB0B2E2F3F2FD9
:10579000005010404CF4E02FF12F0E9484350E2F62
:1057A0001F2FEFEFFFEF02C0E1E0F0E0E887F9879D
:1057B000205030404CF4E22FF32F0E9484352E2FDE
:1057C0003F2F4FEF5FEF02C041E050E0000F111F8D
:1057D000220F331F0E94C1320217130734F5E22F44
:1057E000F32FF595E795DF01E02FF12FEA1BFB0B77
:1057F000EE83FF83ED85FE85A989BA89EA17FB0749
:1058000099F0AE81BF81109744F00E94CD32EE81B5
:10581000FF81E21BF30BEE83FF830E94D632E02F61
:10582000F12F0E94DF32E6CF25C0E02FF12FF59552
:10583000E795DF01E22FF32FEA1BFB0BEE83FF83DB
:10584000EB85FC85AF85B889EA17FB0799F0AE8137
:10585000BF81109744F00E94D632EE81FF81E01B99
:10586000F10BEE83FF830E94CD32E22FF32F0E94D3
:10587000DF32E6CFE6C00E94BB3700E010E02F81A8
:1058800038850E94E6322017310714F40C948B2CD3
:105890000E94F1320E94FA320E94F1320E940633D5
:1058A0000E9410330E94FA320E9410330E94063385
:1058B0000E9417330E94F1320E9420330E94173356
:1058C0000E9410330E9420330E9424330E94F13240
:1058D0000E9420330E9424330E9410330E94203300
:1058E000405050404CF4A02FB12F0F5F1F4F0E942B
:1058F0002B334E0F5F1F0EC01F930F930F5F1F4F71
:10590000E22FF32F21503040AF91BF910E943033EE
:105910004E0F5F1FB8CF3AC00E94BB3700E010E0C7
:105920002F8138850E94E632201731077CF10E94D2
:10593000F1320E9406330E9410330E9406330E9407
:1059400017330E9410330E9420330E9424330E9498
:1059500010330E942033405050404CF4A02FB12F00
:105960000F5F1F4F0E942B334E0F5F1F0EC01F9300
:105970000F930F5F1F4FE22FF32F21503040AF9155
:10598000BF910E9430334E0F5F1FCECF0E94C237AF
:105990002D9608950E943733EF81F885FA93EA93A4
:1059A000EB85FC850E944033EF81F885FA93EA93FA
:1059B0000E944633E885EA930E94B52B0E94463345
:1059C000EF81F8850E9440330E943733EB85FC85D8
:1059D000FA93EA93EF81F8850E944033299608955F
:1059E0000E944B330E94C6332CC00E944B330E944E
:1059F000C633E02FF12F3196FA93EA93E22FF32F7B
:105A00003196FA93EA93E42FF52F3196FA93EA93BD
:105A1000EC85FD8531960E941734E02FF12F3197E8
:105A2000FA93EA93E22FF32F3197FA93EA93E42F54
:105A3000F52F3197FA93EA93EC85FD8531970E9413
:105A400017340E94C237639608952A970E94BD3783
:105A5000AF85E4E6EA1708F46DC0EE85E030E1F4C6
:105A6000EE89FF89FA93EA930E941D340E942A343A
:105A70000E941D340E942E34EE89FF89FA93EA9326
:105A8000EE89FF89FA93EA93EA8DFB8DFA93EA9304
:105A90000E942E34E1E0EE87AC89BD89E889F9895E
:105AA000EA1BFB0BFA93EA930E941F35A4E6B0E0D1
:105AB0000E94E8350E2FE02FAF850E94DA351E2FA9
:105AC00030E0311730F40E9433340E942A343F5FB3
:105AD000F8CFE02FA4E60E94DA352E2F312F3217AF
:105AE00040F40E943334E0E0EA930E94B52B3F5F1C
:105AF000F6CFFE013496FA93EA93EEEFF2E5FA93CD
:105B0000EA93EB89FF27662777270E94253684E0F2
:105B10000E942B3128960E9450343197FA93EA93D1
:105B20000E945034FA93EA93FE013896FA93EA936E
:105B30000E94832A0E94C43768960895E881E03065
:105B400011F4E1E01BC0E13011F4E2E017C0E230F3
:105B500011F4E4E013C0E33011F4E8E00FC0E430E6
:105B600011F4E0E10BC0E53011F4E0E207C0E630EB
:105B700011F4E0E403C0E73009F4E0E82196089569
:105B8000249781E0A0E0B0E0E4E5F0E00E94C937AE
:105B90000E94BB37E0E0EF830E945A34E03011F4FA
:105BA0000C946A2EEA85FB8536960E942136FF9377
:105BB000EF930E945A34AF91BF91F0E0EA0FFB1FC0
:105BC000E491E987EA85FB850E942136309751F4FC
:105BD000EA85FB8538960E946234EA0FFB1FE49148
:105BE000F0E004C0EA85FB850E9421362E2F3F2F6E
:105BF000EA85FB853A960E946234EE0FFF1FEA0F9A
:105C0000FB1F0E9421360E2F1F2FEA85FB8532963F
:105C10000E942136E88750E00E946834A885B0E0F1
:105C20000E94AD35A52FB0E0AE17BF0710F00C9461
:105C30005F2E40E0E22FF32FA42FB0E0AE17BF0796
:105C4000B0F5EA85FB8534960E942136FF93EF93E9
:105C5000E52FA02FB12FF0E0EA0FFB1FFF93EF938A
:105C6000E42F0E94B737AF91BF91F0E0EA0FFB1F1E
:105C7000AF91BF91EA0FFB1FE491EF93E42FE77020
:105C8000A7E0AE1BAA930E949E2DAF91EA2339F0A4
:105C90000E9470340E947D340E94982A06C00E949F
:105CA00070340E947D340E94B32A4F5FC3CF0E949C
:105CB0006834A52FB0E0EA0FFB1F5E2FADCFE22FB7
:105CC000F32FAE81B0E0EA0FFB1FEE83EF81EF5FB1
:105CD000EF8362CF0E94C237629608950E94402BE4
:105CE0000E94532B0E94582A0E94442AE6E5FFE0B6
